:1000000048C162C1F0C360C15FC15EC141C45CC18F
:100010005BC15AC159C158C157C156C155C154C11C
:1000200053C152C151C150C14FC14EC14DC14CC14C
:100030004BC14AC149C148C147C146C109686F6D3A
:1000400065203D200009706F736974696F6E203DF3
:1000500020000943202D2043757272656E74206D57
:100060006561737572656D656E74206D6F64650A88
:100070000D00202D20756E6B6E6F776E20636F6D97
:100080006D616E6400096E202D206E756D62657263
:10009000206F662073746570730A0D000967202D48
:1000A00020676F20287374617274206D6F74696F9C
:1000B0006E290A0D00757272656E742061646A752E
:1000C0007374202D2D20736574206D617820637505
:1000D0007272656E74206E6F772C2068697420616F
:1000E0006E79206B657920746F2065786974000DD6
:1000F0000A4572726F723A2073746570732070656E
:1001000072207365636F6E6420697320303B206ECC
:100110006F206D6F74696F6E000973746570732062
:10012000646F6E65203D2000096E737465707320E6
:10013000726571756573746564203D200073746524
:1001400070733A20000973202D207374657073203A
:10015000706572207365636F6E64202866726F6DC0
:10016000203120746F20343030290A0D0009746961
:10017000636B73202831372E333620757320656109
:10018000636829207065722073746570203D2000BB
:1001900009737465707320706572207365636F6E88
:1001A00064203D2000746570732070657220736553
:1001B000636F6E643A20000953202D207072696EBF
:1001C00074207374617475730A0D00093C73706157
:1001D00063656261723E202D2053746F70206D6FD5
:1001E000746F72206D6F74696F6E0A0D00537465C1
:1001F00070706572204D6F746F72205465737469EE
:100200006E6720323031352D31312D32360A0D00F6
:100210000A0D5374617475730A0D000964202D2052
:100220006D6F746F7220646972656374696F6E2C90
:100230002073657420746F202866296F727761724D
:1002400064206F72202872296576657273650A0DC5
:100250000009646972656374696F6E203D200069EE
:1002600072656374696F6E3A20666F72776172644B
:10027000206F722072657665727365203C667C72B1
:100280003E3A20000A0D436F6D6D616E64730A0D76
:10029000000011241FBECFEFD2E0DEBFCDBF11E0C2
:1002A000A0E0B1E0E0EAFAE002C005900D92A430CF
:1002B000B107D9F721E0A4E0B1E001C01D92A83454
:1002C000B207E1F7E8D1EAC39BCE1EBCF894809157
:1002D0000A0190910B0190931201809311011092E9
:1002E00005011092040180911601909117019BBDA8
:1002F0008ABDDF9A8FEF9FE80197F1F700C00000F9
:1003000078948CE08EBD089580918600882334F027
:10031000E6E8F0E0000080818823E4F78091800027
:1003200008959091860095FD06C0E6E8F0E0000093
:10033000908195FFFCCF8093800008950F931F93C9
:10034000CF93FC018081882351F08F01C0E0CF5F03
:10035000E8DFF801EC0FF11D80818111F8CFCF911A
:100360001F910F910895BA9AD09AD39AD79A81E0A3
:1003700080930801D89AC29ADF98109282008FE584
:100380008093810088E18093850086E080938400DB
:1003900082E08FB98FB980E091EE90930E01809347
:1003A0000D0180E18BBF80E782BB809363001092D8
:1003B000100110920F0180910D0190910E0160913A
:1003C0000F0170911001ABD2709317016093160169
:1003D0001092120110921101109205011092040165
:1003E00010920B0110920A0110920701109206015F
:1003F000109214011092130189B380778093090140
:100400006DEE71E088E191E0F9D298DF8EE389DF4B
:10041000089580E091E092DF0895CF93DF93CDB708
:10042000DEB727970FB6F894DEBF0FBECDBF90E0C2
:10043000E6E8F0E040E850E001C000008081882359
:10044000E4F7292F30E0DA018C9161E070E06C0F65
:100450007D1F620F731FDB018C93DA018C93DB012C
:100460008C918D3051F4F901E85EFE4F10828AE0E4
:1004700058DFCE010196A5D219C0953061F489816B
:100480008B3291F08D3281F0C4DF8FE34ADFC1DF20
:1004900080E090E00BC0963039F4BBDF8FE341DFA2
:1004A000B8DF80E090E002C09F5FC8CF27960FB60C
:1004B000F894DEBF0FBECDBFDF91CF91089564E801
:1004C00072E088E191E09AD239DF62E570E088E17C
:1004D00091E094D233DF6CE970E088E191E08ED254
:1004E0002DDF6BE172E088E191E088D227DF65E8DB
:1004F00070E088E191E082D221DF65E471E088E17B
:1005000091E07CD21BDF67EB71E088E191E076D26D
:1005100015DF6BEC71E088E191E070D20FDF79DFDD
:100520000895CF93DF93CDB7DEB727970FB6F89432
:10053000DEBF0FBECDBFBC0180E090E02AE0AE017F
:100540004F5F5F4F62D2FADE27960FB6F894DEBF98
:100550000FBECDBFDF91CF910895CF93DF93CDB77D
:10056000DEB727970FB6F894DEBF0FBECDBFBC0134
:10057000990F880B990B2AE0AE014F5F5F4F45D270
:10058000DDDE27960FB6F894DEBF0FBECDBFDF913C
:10059000CF91089560E172E088E191E02FD2CEDE44
:1005A00065E470E088E191E029D2C8DE809106011F
:1005B00090910701D2DF2DDF6CE370E088E191E0DC
:1005C0001DD2BCDE8091130190911401C6DF21DFA2
:1005D00068E271E088E191E011D2B0DE80910A0119
:1005E00090910B019EDF15DF60E971E088E191E0F9
:1005F00005D2A4DE80910F019091100192DF09DFF6
:1006000061E572E088E191E0F9D198DE809108011E
:10061000813031F080910801882321F08FE303C0FD
:1006200086E601C082E77DDEF4DE6DE671E088E1FA
:1006300091E0E4D183DE809116019091170171DF82
:10064000E8DE69E171E088E191E0D8D177DE809160
:1006500004019091050165DFDCDEDBDE0895DB9AA5
:1006600081E38A95F1F70000DB9881E38A95F1F741
:10067000000080910401909105010196909305017D
:10068000809304010895F894DF981EBC1092120123
:1006900010921101089567DEC6E8D0E00F2E812C7C
:1006A000F1EE9F2EA12CB12CF02D01E06894EE24E8
:1006B000E7F8F12C88818823ECF726DE182F31DE4D
:1006C000133509F484C040F41032A9F01334B1F0AA
:1006D0001D3009F07EC00DC01736D1F118F4143664
:1006E000E1F077C01E3609F443C0133709F450C057
:1006F00070C08FDE75C0C7DF8CDE72C065EB70E046
:1007000088E191E07BD11ADEDF9A88818823ECF7BB
:10071000F7018081DF987DDE63C06FE572E088E1DC
:1007200091E06CD10BDEF0DD182FFBDD163629F4DD
:1007300000930801D89AC29A09C0123729F410927E
:100740000801D898C29802C08FE3EBDD62DE48C092
:1007500080910F0190911001892B11F0B6DD06C038
:100760006FEE70E088E191E049D1E8DD52DE38C0FB
:100770006DE371E088E191E041D1E0DD4EDE9093E0
:100780000B0180930A01109205011092040128C008
:1007900065EA71E088E191E031D1D0DD3EDE9093F1
:1007A000100180930F0120910F013091100140E062
:1007B00050E0C501B401C7D0309317012093160152
:1007C00080911601909117019BBD8ABD09C0E2DEA0
:1007D00007C062E770E088E191E010D1AFDD6FDE25
:1007E0008EE39FDD67CF1F920F920FB60F921124F9
:1007F0002F933F934F935F936F937F938F939F9329
:10080000AF93BF93EF93FF9389B3807780930C01ED
:1008100080910C01909109018927809315018091A5
:100820001501803131F480910C0184FD1CC02BDF57
:100830001AC080911501803431F480910C0186FD3D
:1008400012C021DF10C080911501803261F48091C7
:100850000C0185FF08C080910601909107019093DB
:1008600014018093130180910C0180930901FF9181
:10087000EF91BF91AF919F918F917F916F915F9118
:100880004F913F912F910F900FBE0F901F90189591
:100890001F920F920FB60F9211242F933F934F93F5
:1008A0005F936F937F938F939F93AF93BF93EF93D8
:1008B000FF932091040130910501809111019091E5
:1008C000120128173907C8F4CADE8091080188236D
:1008D00051F08091060190910701019690930701D4
:1008E000809306010BC0809106019091070101974A
:1008F000909307018093060101C0C5DEFF91EF913F
:10090000BF91AF919F918F917F916F915F914F9127
:100910003F912F910F900FBE0F901F901895AA1B1B
:10092000BB1B51E107C0AA1FBB1FA617B70710F0DA
:10093000A61BB70B881F991F5A95A9F7809590950C
:10094000BC01CD010895052E97FB16F400940FD03D
:1009500057FD05D014D007FC02D046F408C05095CE
:100960004095309521953F4F4F4F5F4F089590959B
:100970008095709561957F4F8F4F9F4F0895A1E2AD
:100980001A2EAA1BBB1BFD010DC0AA1FBB1FEE1F09
:10099000FF1FA217B307E407F50720F0A21BB30B54
:1009A000E40BF50B661F771F881F991F1A9469F7D0
:1009B00060957095809590959B01AC01BD01CF012C
:1009C0000895FC0188279927E89421912032E9F3C2
:1009D000293010F02E30C8F32B3239F02D3231F49B
:1009E000689403C020D0820F911D219120532A309A
:1009F000C8F31EF4909581959F4F0895FB01DC018B
:100A000005900D920020E1F70895BB272A3051F49C
:100A1000992342F4BDE290958095709561957F4F42
:100A20008F4F9F4F0BC0BC01880F991F880F991FD4
:100A3000860F971F880F991F0895BB27FA01A62FCD
:100A40006217710581059105330B30FB66F0AA270B
:100A5000660F771F881F991FAA1FA21710F0A21BED
:100A600063953850A9F7A05DAA3308F0A95DA1935A
:100A700036F7B111B1931082CA0100C0DC01FC014C
:100A8000672F71917723E1F7329704C07C916D93C2
:100A900070836291AE17BF07C8F30895F894FFCF33
:040AA0000A0D00003B
:00000001FF
